:10000000A0018A150A12002809001728820700009B
:100010001F341C341F341E341F341E341F341F344D
:100020001E341F341E341F341F341F341F348A15EE
:10003000C8218A116A249E2A4B080339031D2428EB
:1000400083168614831227288316861583124B087D
:100050000339031D332886183B2883168611831223
:100060008611B926422B86193B28831686108312E7
:1000700086100827622BF91E59280C1E5928831652
:100080008610861183128610861138083902031DE6
:100090004B28F9121C288313380A840010300402FC
:1000A000031884010408B800283084070008990068
:1000B0001C288C1E632883168610861183128610D6
:1000C00086117826C7288C1C27288316861086114F
:1000D0008312861086118C10791F7128A12679133E
:1000E0007628F91F7628A926F9137628CB0AC83076
:1000F0004B0203199F244B181C28781F1C28F91940
:10010000A52879198B28F91C1C28CE0B8B280A30BE
:10011000CE00CF0A05250509F400740C1F39F40040
:100120002602031997287408A600FE30A0280709A4
:100130001F39F400270203191C287408A700FF3098
:10014000C0006227DE2465271C28CC0B1C284A0827
:10015000CC0062270509A600260C1F39A600070956
:100160001F39A700F401261AF414271A741474080E
:100170007D262608F400F40DF40DF40D740DF0390D
:10018000F40027080F3974047D2665271C28F8170A
:10019000F9117308033C031DE228F6307D26033075
:1001A0007D2649087D2622087D260301871A013015
:1001B0007D26A83058277D26A93058277D260301A3
:1001C0007D261C287308043C031DEE28A201782616
:1001D000033C031C20297308A83E07297308063C2A
:1001E000031DFB28073098267826073C031C20298E
:1001F0007308903E07297308053C031D2229073028
:10020000982678268F3C031C20297308003EF200B4
:100210007826031783168C180B29831272088D0019
:1002200073088C0083168C130C1555308D00AA3082
:100230008D008C140C118C181B29831203131C289D
:1002400078261C287308073C031D29297826FD0001
:100250001C287308083C031D30297910F8114D291A
:100260007308093C031D40297826E6007826E7003C
:100270007826E8007826E9006A247910F8154D29D7
:1002800073080A3C031D4F2978266624EE00782661
:100290006624EF00EC01ED017914F8161C287308B0
:1002A0000B3C031D5629782678261C2873080C3C25
:1002B000031D612978266624DC0078266624DD008B
:1002C0007C2973080D3C031D6F29F81D1C28F919A2
:1002D0001C28F730C0008613C42586171C28730815
:1002E0000E3C031D812978267826E2007826E3005B
:1002F0007826E4007826E5008A15282135218A1120
:100300001C2873080F3C031D872978161C287308C6
:10031000103C031D8D2978121C287308113C031D05
:1003200092291C287308123C031D9829F8121C28D6
:100330007308133C031D9E29F8131C287308143CF2
:10034000031DA629F910791578171C287308153C88
:10035000031DAE29F910791178171C287308163C73
:10036000031DC229781F1C28F9181C28F9191C28FC
:100370000509A600260C1F39A60007091F39A7008A
:10038000FD30A0287308173C031DCD29782666246C
:10039000CA00CC00F91578171C287308183C031DF7
:1003A000D2291C287308193C031DE9297826D0009E
:1003B0007826D1007826D2007826D3007826D4007B
:1003C0007826D500D601FF30D700F91479117817B7
:1003D0001C2873081A3C031DEF2978131C28730886
:1003E0001B3C031D022A3A30840083130630F200BE
:1003F00078268000840AF20BF829CB018A1589211E
:100400008A111C2873081C3C031D0A2A6227CE246B
:1004100065271C287308203C031D382A7826F40021
:10042000831373188317782684007826F200040457
:1004300074040319312A7826831B202A841F2B2A4F
:100440000408603903192B2A04087039703C031919
:100450002B2A73088000840A03198317F20B1B2AC6
:100460001C2807309826A726AF268A150A120128CD
:100470007308213C031D7F2A7826F4008313731828
:1004800083177826F50084006227F6307D26203019
:100490007D26F41B602A0630F2007408213C031903
:1004A000592A00087D26840A03198317F20B512A62
:1004B0007D2A750858277D26F50AF20B592A7D2AD0
:1004C000F4130330F2000317831274088F007508C9
:1004D0008D0083168C170C140000000083120C088A
:1004E000FE000E08FF0003137F087D267E087D2690
:1004F000F50A0319F40AF20B632A65271C2873080E
:10050000223C031D862A782678261C287308803C06
:10051000031DA32A7826013C031D1C28F801F901BC
:10052000FA01D601B801B90187126227201BA7265C
:10053000A01BAF26201B7917A01BF9177915F816F9
:100540007817F8171C287308873C031DB02AF6306B
:100550007D2607307D267D087D260530F200392B6B
:100560007308883C0319BC2A7308893C0319BC2A08
:1005700073088A3C031DD72AF6307D267918D12AC4
:10058000F819C42A0830362B09307D2666087D26E6
:1005900067087D2668087D2669087D260230F200FE
:1005A000392B0A307D266E087D266F08EE2A7308E7
:1005B0008B3C031DE32AF6307D260B307D2601306F
:1005C0007D260130EE2A73088C3C031DF22AF6309A
:1005D0007D260C307D265C087D265D087D26043056
:1005E000F200392B73088F3C0319FA2A7308903CE8
:1005F000031D002BF6307D260F30781E1030362B71
:100600007308923C031D0A2BF6307D260301F81E69
:100610001230362B7308943C0319162B7308953C43
:100620000319162B7308993C031D2D2BF6307D26DC
:10063000F9181E2B1430791D1530362B19307D26F4
:1006400050087D2651087D2652087D2653087D26B8
:1006500054087D2655087D261C2873089A3C031DE6
:100660001C28F6307D260301781F1A307D260630BF
:10067000F20003017D26F20B392B1C28A1261C2831
:10068000A3261C288316861083128610F61F402B83
:100690007308AA3C0319572C7308FC3C03193E2B22
:1006A0007308F03C031D562B79161C28F9195B2B97
:1006B00006136426061779121C28A9261C28AB26C7
:1006C000C8011C288316861183128611F61F5F2B22
:1006D0004808031D732B7308AA3C03195F2C730889
:1006E000FC3C03195D2BC80A4808013C0319812B07
:1006F0004808023C03198B2B4808033C03198E2B36
:10070000942B7308C400C41B892B441B892BC41968
:100710001C28C8011C287308C5001C287308C600C3
:10072000F81C962BC7011C287308C700C801A30139
:100730004418A314C41823142308F838C000C301B4
:10074000C101C201441DA72B94305827C300C51313
:10075000441AC5174508EA00F81DD12BF701C51B3F
:10076000F709DF0777080318770FDE07DE1BD02BAA
:100770008A1542218A11660862020319C22B031CE2
:10078000D12BC82B670863020319C82B031CD12B7C
:100790006708E3006608E2008A1528218A11D12B38
:1007A0007024C613C41AC617781AD82BC609C60AED
:1007B0004608EB00F81DFF2BF701C61BF709E10700
:1007C00077080318770FE007E01BFE2B8A154D21F1
:1007D0008A11680864020319F02B031CFF2BF62B07
:1007E000690865020319F62B031CFF2B6908E50055
:1007F0006808E4008A1535218A11FF2B6B24F81C48
:10080000272CC719112C47080F3903191A2C471C1C
:100810000D2C91305827C1001A2C92305827C10056
:100820001A2C471C172C90305827C1001A2C9330D3
:100830005827C100781D272C471E222C9530582799
:10084000C200272CC71E272C96305827C200F81E3E
:100850001C28F9191C288613C4257D1C3D2C23084F
:10086000240601390319362C23184D2C230824069D
:10087000023903193D2CA3184D2CFD1C532C2308C1
:10088000240601390319462C231C4D2C2308240669
:1008900002390319532CA318532C2308A500A509CA
:1008A000F730C000C42586172308A4001C289D2605
:1008B0009626A52602309826061720171C28AD2656
:1008C0004426F81854268617A0171C280038031948
:1008D000013008007024E101E001E501E4010800B5
:1008E000DF01DE01E301E20108001E082202031914
:1008F0000800AA305827F4001E08A200F402031CC6
:10090000F401AB305827F200C901F7017408C90798
:10091000030103180130F707F20B862C0630F200B2
:10092000F70CC90CF20B902CA83058274902031879
:100930008716A93058274902031C87120800CB01EB
:100940001F19A42C75241F150317950A3C30150296
:10095000031CCC2C9501940A3C301402031CCC2CB3
:100960009401930A18301302031CCC2C9301920AB1
:1009700011080F3906201202031CCC2C0130920002
:10098000910A0D301102031CCC2C01309100900A09
:100990006430100203189001031308008A15AB217C
:1009A0008A11FC307D263A30840083130630F20031
:1009B00000087D26840AF20BD82C08004008FD3C74
:1009C000031DE82C40087D262608FF242708FF2C5D
:1009D0004008FE3C031DF62CF91CF22C7430261E38
:1009E000F4307D2E40087D262608FF2CF91CFC2CB7
:1009F0007530271EF5307D2E40087D262708F4002F
:100A0000741AF417741274087D2E5618162D2608C1
:100A1000570601390319162D261C162D5614561289
:100A20004F08D90051080319162D8126D618272DF5
:100A30002608570602390319272DA61C272DD61480
:100A4000D6124F08D90051080319272D83265619AD
:100A5000382D2608570604390319382D261D382D40
:100A6000561556134F08D80050080319382D8526FF
:100A7000D619492D2608570608390319492DA61DF0
:100A8000492DD615D6134F08D80050080319492D03
:100A90008726561C672D261C522D59084F025502D9
:100AA0000318552D56105612672D561A5D2D5908EC
:100AB0004F0251020318672D622D5B084F0253024B
:100AC0000318672D561456164F08DB008126D61CD6
:100AD000852DA61C702D59084F0255020318732D41
:100AE000D610D612852DD61A7B2D59084F025102E9
:100AF0000318852D802D5B084F0253020318852DA6
:100B0000D614D6164F08DB008326561DA32D261DAE
:100B10008E2D58084F0254020318912D561156136A
:100B2000A32D561B992D58084F0250020318A32DD0
:100B30009E2D5A084F0252020318A32D5615561720
:100B40004F08DA008526D61DC12DA61DAC2D5808EC
:100B50004F0254020318AF2DD611D613C12DD61B48
:100B6000B72D58084F0250020318C12DBC2D5A084A
:100B70004F0252020318C12DD615D6174F08DA00BE
:100B800087262608D70008004008F73C0319232EC3
:100B9000F819D22D7918D22D40087D266A087D26B5
:100BA0006B087D26791CFE2D6A08EC07EC1BDF2DF7
:100BB0006E086C020318E62DEC008726D82D6E080F
:100BC0006C070318E62DEC008526DF2D6B08ED077A
:100BD000ED1BF42D6F086D020318FE2DED00781E3D
:100BE0008326781A8126EA2D6F086D070318FE2DDB
:100BF000ED00781E8126781A8326F42D7D1D122E95
:100C00002308240601390319092E7530231CF530F9
:100C10007D262308240602390319122E7430A31CE2
:100C2000F4307D2643080319162E8826973058275E
:100C3000F200410803191F2E8826F20B192E4208D4
:100C400003190800882E40087D26F4012308250694
:100C5000013903192F2E23187414231CF4142308AC
:100C6000250602390319382EA3187415A31CF41590
:100C70002308A50074087D2662087D2663087D266A
:100C800064087D2665087D2EC830B1266430B12603
:100C90005030B126F23005270627F8107308033CC0
:100CA0000319F8146430B12EC830B126C830B1260B
:100CB0005030B126F2300527062778117308043C1E
:100CC000031978156430B12E73088F3C031C08009B
:100CD00073085827F3000038031908008038791A80
:100CE0007D2E7F397D2673083A3C03198D26080036
:100CF0008C1E782E1A08F30008008A1500218A112C
:100D000008004830882E5030882E4B30882E4D30C9
:100D1000F3007D26730880387D2E781C912E781084
:100D2000922E7814023078180630982EF830B62EAD
:100D3000F700ED30B6267708B62EF030B626033031
:100D4000B62EFF30B62EFE30D62EF430B62EF5304D
:100D5000B62EFF30052FFE30252FF430052FF5304D
:100D6000052FF700F33005277708052FD6268618BC
:100D7000B72EF601CE26F3010830F200F30CF31380
:100D8000CE26F304F606F20BBE2ECE26F606CE26AF
:100D900000380319F601F61FF30108000301861855
:100DA000CF2E06188030861CD32E0800F4000830A1
:100DB000F200F6018316861083128610183054272D
:100DC0008316061083120610E52EE62E0000831609
:100DD000861483127408F606F926F40CF20BEA2E38
:100DE0007609F9260130F9268618F42E861CF62E8F
:100DF00008008618F92E83160139031D06140319FD
:100E000006108312861C022F080025278619062F3C
:100E1000F6011D27F3010830F200F30CF3131D2730
:100E2000F304F606F20B0D2F1D27F6061D270038DA
:100E30000319F601F61FF3010800030186191E2F9E
:100E400006198030861D222F0800F4000830F200B9
:100E5000F6018316861183128611183054278316E3
:100E6000061183120611342F352F000083168615C4
:100E700083127408F6064827F40CF20B392F760912
:100E80004827013048278619432F861D452F080023
:100E90008619482F83160139031D061503190611FB
:100EA0008312861D512F0800FF3E031D542F08009A
:100EB000031783128D0083168C130C1483120C08F5
:100EC0000313080006138613080006178617080088
:101000009C28FF30F5000F30F200FF30FE003F302B
:10101000FF000317831272088F0075088D007E0889
:101020008C007F088E0083168C170C1555308D00B0
:10103000AA308D008C14000000000C1183120313E1
:10104000F301F501F20172168C1E24281A083F39AB
:10105000FF00F3078C1E2A281A08FE00F307031767
:10106000831272088F0075088D007E088C007F083F
:101070008E0083168C170C1555308D00AA308D000C
:101080008C14000000000C1183120313751D06134D
:10109000751D86137519061775198617F50A031D30
:1010A0002428F20AF21E24288C1E54281A087302DF
:1010B000031D9A28F601F501F20172160317831237
:1010C00072088F0075088D0083168C170C140000B1
:1010D000000083120C08FE000E08FF0003137F08B7
:1010E000F6077E08F607F50A031D5E28F20AF21ECF
:1010F0005E2876087302031D9A28FF30F5000F3032
:10110000F200FE01FF010317831272088F007508B9
:101110008D007E088C007F088E0083168C170C15BE
:1011200055308D00AA308D008C14000000000C1189
:10113000831203138A010128A03084008001840AED
:10114000841B9E282030840083178001840A841F1A
:10115000A528A03084008001840A841BAB2821309C
:10116000840083138001840A841FB228831603132A
:10117000FF30870083128A01A101071E0528FF3076
:10118000F5000F30F200FF300317831272088F0052
:1011900075088D0083168C170C1400000000831254
:1011A0000C08FE000E08FF0003137E087F04031DD9
:0A11B0000528FF30A1000A160528EB
:10120000F81F0800FC0039080C1E0D293802031DC8
:101210000D297C089900F91208000308F100040860
:10122000F0008313390A840010300402031884018B
:1012300038080402031923290408B9002830840758
:101240007C088000F916700884007108830008008B
:10125000DF01DE015C08F2006308DF0762080318A3
:10126000620FDE07F20B2C290800E101E0015D08A6
:10127000F2006508E10764080318640FE007F20B49
:10128000392908005F08F5005E08CD005C08582188
:101290007508E3004D08E20008006108F5006008E9
:1012A000CD005D0858217508E5004D08E4000800F0
:1012B000FB00F3010830F2004D0DF30D7B08F30243
:1012C00003186429F3070310CD0DF20B5C29F40118
:1012D0000830F200750DF30DF40D7B08F302F701F1
:1012E0000301031C770FF40203187E297B08F30720
:1012F000F70103010318770FF4070310F50DF20B44
:101300006A2908003A30CD001030F5000630F200AE
:101310000800822183134D0884000008F4000301B3
:101320007418013EF418023E7419043EF419083E84
:10133000741A0A3EF41A143E741B283EF41B503EE5
:101340008317F4007508840074088000F50ACD0A3C
:10135000F20B8A290800822183177508840000088F
:10136000F400F7010A307402031CB929F400F70AEB
:10137000B22983134D088400F70DF70DF70D770D93
:10138000F03974048000F50ACD0AF20BAC2908008C
:10139000831603130E309F00FF308500DF30870077
:1013A000353086007D3092008312C5309F00850164
:1013B000860149309200910112151F308316990061
:1013C00018159816831218169817F801F901FA01E2
:1013D0000509A600260C1F39A60007091F39A7001A
:1013E000A201C901E601E701E801E9010130DC00E1
:1013F000DD00EE01EF01A301A401A501FD010A300A
:10140000CE00CF01C801B801B901201B7917A01B7C
:06141000F9178C10080022
:02400E00313F40
:1042000000000000000000000000000000003B0073
:10421000010000000000000000000F005B003C00F7
:1042200000001D002A0060003A00100002003D005E
:10423000000038002C001F001E00110003003E008B
:1042400000002E002D0020001200050004003F0099
:10425000000039002F002100140013000600400068
:10426000000031003000230022001500070041004B
:104270000000380032002400160008000900420047
:10428000000033002500170018000B000A0043004F
:104290000000340035002600270019000C004400FF
:1042A0000000000028002B001A000D0062004900E9
:1042B0001D0036001C001B002B00000061004C009C
:1042C00050004B004F004800530055000E005200B4
:1042D00000006D004D006A00670046004700450081
:1042E000700071006E006B006C0068005400650087
:1042F000000072006F0000004E00690066000000C0
:1043000000000000000000004A0000000000000063
:104310000000000000005600570058000000000098
:1043200059005A005C005D0037005E005F0003002A
:10433000450069006600660065006C0020003200E0
:1043400046004100560041005200440020004C004D
:0843500028002300B4001C004A
:00000001FF
